{
  "contractName": "STB9b9BusinessRewards",
  "abi": [
    {
      "anonymous": false,
      "inputs": [
        {
          "indexed": true,
          "internalType": "address",
          "name": "owner",
          "type": "address"
        },
        {
          "indexed": true,
          "internalType": "address",
          "name": "spender",
          "type": "address"
        },
        {
          "indexed": false,
          "internalType": "uint256",
          "name": "value",
          "type": "uint256"
        }
      ],
      "name": "Approval",
      "type": "event"
    },
    {
      "anonymous": false,
      "inputs": [
        {
          "indexed": true,
          "internalType": "address",
          "name": "from",
          "type": "address"
        },
        {
          "indexed": true,
          "internalType": "address",
          "name": "to",
          "type": "address"
        },
        {
          "indexed": false,
          "internalType": "uint256",
          "name": "value",
          "type": "uint256"
        }
      ],
      "name": "Transfer",
      "type": "event"
    },
    {
      "inputs": [
        {
          "internalType": "address",
          "name": "owner",
          "type": "address"
        },
        {
          "internalType": "address",
          "name": "spender",
          "type": "address"
        }
      ],
      "name": "allowance",
      "outputs": [
        {
          "internalType": "uint256",
          "name": "",
          "type": "uint256"
        }
      ],
      "stateMutability": "view",
      "type": "function"
    },
    {
      "inputs": [
        {
          "internalType": "address",
          "name": "spender",
          "type": "address"
        },
        {
          "internalType": "uint256",
          "name": "amount",
          "type": "uint256"
        }
      ],
      "name": "approve",
      "outputs": [
        {
          "internalType": "bool",
          "name": "",
          "type": "bool"
        }
      ],
      "stateMutability": "nonpayable",
      "type": "function"
    },
    {
      "inputs": [
        {
          "internalType": "address",
          "name": "account",
          "type": "address"
        }
      ],
      "name": "balanceOf",
      "outputs": [
        {
          "internalType": "uint256",
          "name": "",
          "type": "uint256"
        }
      ],
      "stateMutability": "view",
      "type": "function"
    },
    {
      "inputs": [],
      "name": "decimals",
      "outputs": [
        {
          "internalType": "uint8",
          "name": "",
          "type": "uint8"
        }
      ],
      "stateMutability": "view",
      "type": "function"
    },
    {
      "inputs": [
        {
          "internalType": "address",
          "name": "spender",
          "type": "address"
        },
        {
          "internalType": "uint256",
          "name": "subtractedValue",
          "type": "uint256"
        }
      ],
      "name": "decreaseAllowance",
      "outputs": [
        {
          "internalType": "bool",
          "name": "",
          "type": "bool"
        }
      ],
      "stateMutability": "nonpayable",
      "type": "function"
    },
    {
      "inputs": [
        {
          "internalType": "address",
          "name": "spender",
          "type": "address"
        },
        {
          "internalType": "uint256",
          "name": "addedValue",
          "type": "uint256"
        }
      ],
      "name": "increaseAllowance",
      "outputs": [
        {
          "internalType": "bool",
          "name": "",
          "type": "bool"
        }
      ],
      "stateMutability": "nonpayable",
      "type": "function"
    },
    {
      "inputs": [],
      "name": "name",
      "outputs": [
        {
          "internalType": "string",
          "name": "",
          "type": "string"
        }
      ],
      "stateMutability": "view",
      "type": "function"
    },
    {
      "inputs": [],
      "name": "symbol",
      "outputs": [
        {
          "internalType": "string",
          "name": "",
          "type": "string"
        }
      ],
      "stateMutability": "view",
      "type": "function"
    },
    {
      "inputs": [],
      "name": "totalSupply",
      "outputs": [
        {
          "internalType": "uint256",
          "name": "",
          "type": "uint256"
        }
      ],
      "stateMutability": "view",
      "type": "function"
    },
    {
      "inputs": [
        {
          "internalType": "address",
          "name": "recipient",
          "type": "address"
        },
        {
          "internalType": "uint256",
          "name": "amount",
          "type": "uint256"
        }
      ],
      "name": "transfer",
      "outputs": [
        {
          "internalType": "bool",
          "name": "",
          "type": "bool"
        }
      ],
      "stateMutability": "nonpayable",
      "type": "function"
    },
    {
      "inputs": [
        {
          "internalType": "address",
          "name": "sender",
          "type": "address"
        },
        {
          "internalType": "address",
          "name": "recipient",
          "type": "address"
        },
        {
          "internalType": "uint256",
          "name": "amount",
          "type": "uint256"
        }
      ],
      "name": "transferFrom",
      "outputs": [
        {
          "internalType": "bool",
          "name": "",
          "type": "bool"
        }
      ],
      "stateMutability": "nonpayable",
      "type": "function"
    },
    {
      "inputs": [],
      "name": "initialize",
      "outputs": [],
      "stateMutability": "nonpayable",
      "type": "function"
    }
  ],
  "bytecode": "0x608060405234801561001057600080fd5b50611ce6806100206000396000f3fe608060405234801561001057600080fd5b50600436106100b45760003560e01c806370a082311161007157806370a08231146101a35780638129fc1c146101d357806395d89b41146101dd578063a457c2d7146101fb578063a9059cbb1461022b578063dd62ed3e1461025b576100b4565b806306fdde03146100b9578063095ea7b3146100d757806318160ddd1461010757806323b872dd14610125578063313ce567146101555780633950935114610173575b600080fd5b6100c161028b565b6040516100ce91906114f1565b60405180910390f35b6100f160048036038101906100ec91906112f5565b61031d565b6040516100fe91906114d6565b60405180910390f35b61010f61033b565b60405161011c9190611633565b60405180910390f35b61013f600480360381019061013a91906112a2565b610345565b60405161014c91906114d6565b60405180910390f35b61015d61043d565b60405161016a919061164e565b60405180910390f35b61018d600480360381019061018891906112f5565b610446565b60405161019a91906114d6565b60405180910390f35b6101bd60048036038101906101b89190611235565b6104f2565b6040516101ca9190611633565b60405180910390f35b6101db61053b565b005b6101e56106b5565b6040516101f291906114f1565b60405180910390f35b610215600480360381019061021091906112f5565b610747565b60405161022291906114d6565b60405180910390f35b610245600480360381019061024091906112f5565b610832565b60405161025291906114d6565b60405180910390f35b61027560048036038101906102709190611262565b610850565b6040516102829190611633565b60405180910390f35b60606036805461029a9061192e565b80601f01602080910402602001604051908101604052809291908181526020018280546102c69061192e565b80156103135780601f106102e857610100808354040283529160200191610313565b820191906000526020600020905b8154815290600101906020018083116102f657829003601f168201915b5050505050905090565b600061033161032a6108d7565b84846108df565b6001905092915050565b6000603554905090565b6000610352848484610aaa565b6000603460008673ffffffffffffffffffffffffffffffffffffffff1673ffffffffffffffffffffffffffffffffffffffff168152602001908152602001600020600061039d6108d7565b73ffffffffffffffffffffffffffffffffffffffff1673ffffffffffffffffffffffffffffffffffffffff1681526020019081526020016000205490508281101561041d576040517f08c379a000000000000000000000000000000000000000000000000000000000815260040161041490611593565b60405180910390fd5b610431856104296108d7565b8584036108df565b60019150509392505050565b60006012905090565b60006104e86104536108d7565b8484603460006104616108d7565b73ffffffffffffffffffffffffffffffffffffffff1673ffffffffffffffffffffffffffffffffffffffff16815260200190815260200160002060008873ffffffffffffffffffffffffffffffffffffffff1673ffffffffffffffffffffffffffffffffffffffff168152602001908152602001600020546104e39190611685565b6108df565b6001905092915050565b6000603360008373ffffffffffffffffffffffffffffffffffffffff1673ffffffffffffffffffffffffffffffffffffffff168152602001908152602001600020549050919050565b600060019054906101000a900460ff1680610561575060008054906101000a900460ff16155b6105a0576040517f08c379a000000000000000000000000000000000000000000000000000000000815260040161059790611573565b60405180910390fd5b60008060019054906101000a900460ff1615905080156105f0576001600060016101000a81548160ff02191690831515021790555060016000806101000a81548160ff0219169083151502179055505b6106646040518060400160405280601981526020017f5354422039623920427573696e657373205265776172647320000000000000008152506040518060400160405280600681526020017f5354423962390000000000000000000000000000000000000000000000000000815250610d2e565b6106913361067061043d565b600a61067c919061172e565b6402cb41780061068c919061184c565b610e1b565b80156106b25760008060016101000a81548160ff0219169083151502179055505b50565b6060603780546106c49061192e565b80601f01602080910402602001604051908101604052809291908181526020018280546106f09061192e565b801561073d5780601f106107125761010080835404028352916020019161073d565b820191906000526020600020905b81548152906001019060200180831161072057829003601f168201915b5050505050905090565b600080603460006107566108d7565b73ffffffffffffffffffffffffffffffffffffffff1673ffffffffffffffffffffffffffffffffffffffff16815260200190815260200160002060008573ffffffffffffffffffffffffffffffffffffffff1673ffffffffffffffffffffffffffffffffffffffff16815260200190815260200160002054905082811015610813576040517f08c379a000000000000000000000000000000000000000000000000000000000815260040161080a906115f3565b60405180910390fd5b61082761081e6108d7565b858584036108df565b600191505092915050565b600061084661083f6108d7565b8484610aaa565b6001905092915050565b6000603460008473ffffffffffffffffffffffffffffffffffffffff1673ffffffffffffffffffffffffffffffffffffffff16815260200190815260200160002060008373ffffffffffffffffffffffffffffffffffffffff1673ffffffffffffffffffffffffffffffffffffffff16815260200190815260200160002054905092915050565b600033905090565b600073ffffffffffffffffffffffffffffffffffffffff168373ffffffffffffffffffffffffffffffffffffffff16141561094f576040517f08c379a0000000000000000000000000000000000000000000000000000000008152600401610946906115d3565b60405180910390fd5b600073ffffffffffffffffffffffffffffffffffffffff168273ffffffffffffffffffffffffffffffffffffffff1614156109bf576040517f08c379a00000000000000000000000000000000000000000000000000000000081526004016109b690611533565b60405180910390fd5b80603460008573ffffffffffffffffffffffffffffffffffffffff1673ffffffffffffffffffffffffffffffffffffffff16815260200190815260200160002060008473ffffffffffffffffffffffffffffffffffffffff1673ffffffffffffffffffffffffffffffffffffffff168152602001908152602001600020819055508173ffffffffffffffffffffffffffffffffffffffff168373ffffffffffffffffffffffffffffffffffffffff167f8c5be1e5ebec7d5bd14f71427d1e84f3dd0314c0f7b2291e5b200ac8c7c3b92583604051610a9d9190611633565b60405180910390a3505050565b600073ffffffffffffffffffffffffffffffffffffffff168373ffffffffffffffffffffffffffffffffffffffff161415610b1a576040517f08c379a0000000000000000000000000000000000000000000000000000000008152600401610b11906115b3565b60405180910390fd5b600073ffffffffffffffffffffffffffffffffffffffff168273ffffffffffffffffffffffffffffffffffffffff161415610b8a576040517f08c379a0000000000000000000000000000000000000000000000000000000008152600401610b8190611513565b60405180910390fd5b610b95838383610f7c565b6000603360008573ffffffffffffffffffffffffffffffffffffffff1673ffffffffffffffffffffffffffffffffffffffff16815260200190815260200160002054905081811015610c1c576040517f08c379a0000000000000000000000000000000000000000000000000000000008152600401610c1390611553565b60405180910390fd5b818103603360008673ffffffffffffffffffffffffffffffffffffffff1673ffffffffffffffffffffffffffffffffffffffff1681526020019081526020016000208190555081603360008573ffffffffffffffffffffffffffffffffffffffff1673ffffffffffffffffffffffffffffffffffffffff1681526020019081526020016000206000828254610cb19190611685565b925050819055508273ffffffffffffffffffffffffffffffffffffffff168473ffffffffffffffffffffffffffffffffffffffff167fddf252ad1be2c89b69c2b068fc378daa952ba7f163c4a11628f55a4df523b3ef84604051610d159190611633565b60405180910390a3610d28848484610f81565b50505050565b600060019054906101000a900460ff1680610d54575060008054906101000a900460ff16155b610d93576040517f08c379a0000000000000000000000000000000000000000000000000000000008152600401610d8a90611573565b60405180910390fd5b60008060019054906101000a900460ff161590508015610de3576001600060016101000a81548160ff02191690831515021790555060016000806101000a81548160ff0219169083151502179055505b610deb610f86565b610df5838361105f565b8015610e165760008060016101000a81548160ff0219169083151502179055505b505050565b600073ffffffffffffffffffffffffffffffffffffffff168273ffffffffffffffffffffffffffffffffffffffff161415610e8b576040517f08c379a0000000000000000000000000000000000000000000000000000000008152600401610e8290611613565b60405180910390fd5b610e9760008383610f7c565b8060356000828254610ea99190611685565b9250508190555080603360008473ffffffffffffffffffffffffffffffffffffffff1673ffffffffffffffffffffffffffffffffffffffff1681526020019081526020016000206000828254610eff9190611685565b925050819055508173ffffffffffffffffffffffffffffffffffffffff16600073ffffffffffffffffffffffffffffffffffffffff167fddf252ad1be2c89b69c2b068fc378daa952ba7f163c4a11628f55a4df523b3ef83604051610f649190611633565b60405180910390a3610f7860008383610f81565b5050565b505050565b505050565b600060019054906101000a900460ff1680610fac575060008054906101000a900460ff16155b610feb576040517f08c379a0000000000000000000000000000000000000000000000000000000008152600401610fe290611573565b60405180910390fd5b60008060019054906101000a900460ff16159050801561103b576001600060016101000a81548160ff02191690831515021790555060016000806101000a81548160ff0219169083151502179055505b801561105c5760008060016101000a81548160ff0219169083151502179055505b50565b600060019054906101000a900460ff1680611085575060008054906101000a900460ff16155b6110c4576040517f08c379a00000000000000000000000000000000000000000000000000000000081526004016110bb90611573565b60405180910390fd5b60008060019054906101000a900460ff161590508015611114576001600060016101000a81548160ff02191690831515021790555060016000806101000a81548160ff0219169083151502179055505b826036908051906020019061112a929190611168565b508160379080519060200190611141929190611168565b5080156111635760008060016101000a81548160ff0219169083151502179055505b505050565b8280546111749061192e565b90600052602060002090601f01602090048101928261119657600085556111dd565b82601f106111af57805160ff19168380011785556111dd565b828001600101855582156111dd579182015b828111156111dc5782518255916020019190600101906111c1565b5b5090506111ea91906111ee565b5090565b5b808211156112075760008160009055506001016111ef565b5090565b60008135905061121a81611c82565b92915050565b60008135905061122f81611c99565b92915050565b60006020828403121561124b5761124a6119be565b5b60006112598482850161120b565b91505092915050565b60008060408385031215611279576112786119be565b5b60006112878582860161120b565b92505060206112988582860161120b565b9150509250929050565b6000806000606084860312156112bb576112ba6119be565b5b60006112c98682870161120b565b93505060206112da8682870161120b565b92505060406112eb86828701611220565b9150509250925092565b6000806040838503121561130c5761130b6119be565b5b600061131a8582860161120b565b925050602061132b85828601611220565b9150509250929050565b61133e816118b8565b82525050565b600061134f82611669565b6113598185611674565b93506113698185602086016118fb565b611372816119c3565b840191505092915050565b600061138a602383611674565b9150611395826119e1565b604082019050919050565b60006113ad602283611674565b91506113b882611a30565b604082019050919050565b60006113d0602683611674565b91506113db82611a7f565b604082019050919050565b60006113f3602e83611674565b91506113fe82611ace565b604082019050919050565b6000611416602883611674565b915061142182611b1d565b604082019050919050565b6000611439602583611674565b915061144482611b6c565b604082019050919050565b600061145c602483611674565b915061146782611bbb565b604082019050919050565b600061147f602583611674565b915061148a82611c0a565b604082019050919050565b60006114a2601f83611674565b91506114ad82611c59565b602082019050919050565b6114c1816118e4565b82525050565b6114d0816118ee565b82525050565b60006020820190506114eb6000830184611335565b92915050565b6000602082019050818103600083015261150b8184611344565b905092915050565b6000602082019050818103600083015261152c8161137d565b9050919050565b6000602082019050818103600083015261154c816113a0565b9050919050565b6000602082019050818103600083015261156c816113c3565b9050919050565b6000602082019050818103600083015261158c816113e6565b9050919050565b600060208201905081810360008301526115ac81611409565b9050919050565b600060208201905081810360008301526115cc8161142c565b9050919050565b600060208201905081810360008301526115ec8161144f565b9050919050565b6000602082019050818103600083015261160c81611472565b9050919050565b6000602082019050818103600083015261162c81611495565b9050919050565b600060208201905061164860008301846114b8565b92915050565b600060208201905061166360008301846114c7565b92915050565b600081519050919050565b600082825260208201905092915050565b6000611690826118e4565b915061169b836118e4565b9250827fffffffffffffffffffffffffffffffffffffffffffffffffffffffffffffffff038211156116d0576116cf611960565b5b828201905092915050565b6000808291508390505b60018511156117255780860481111561170157611700611960565b5b60018516156117105780820291505b808102905061171e856119d4565b94506116e5565b94509492505050565b6000611739826118e4565b9150611744836118ee565b92506117717fffffffffffffffffffffffffffffffffffffffffffffffffffffffffffffffff8484611779565b905092915050565b6000826117895760019050611845565b816117975760009050611845565b81600181146117ad57600281146117b7576117e6565b6001915050611845565b60ff8411156117c9576117c8611960565b5b8360020a9150848211156117e0576117df611960565b5b50611845565b5060208310610133831016604e8410600b841016171561181b5782820a90508381111561181657611815611960565b5b611845565b61182884848460016116db565b9250905081840481111561183f5761183e611960565b5b81810290505b9392505050565b6000611857826118e4565b9150611862836118e4565b9250817fffffffffffffffffffffffffffffffffffffffffffffffffffffffffffffffff048311821515161561189b5761189a611960565b5b828202905092915050565b60006118b1826118c4565b9050919050565b60008115159050919050565b600073ffffffffffffffffffffffffffffffffffffffff82169050919050565b6000819050919050565b600060ff82169050919050565b60005b838110156119195780820151818401526020810190506118fe565b83811115611928576000848401525b50505050565b6000600282049050600182168061194657607f821691505b6020821081141561195a5761195961198f565b5b50919050565b7f4e487b7100000000000000000000000000000000000000000000000000000000600052601160045260246000fd5b7f4e487b7100000000000000000000000000000000000000000000000000000000600052602260045260246000fd5b600080fd5b6000601f19601f8301169050919050565b60008160011c9050919050565b7f45524332303a207472616e7366657220746f20746865207a65726f206164647260008201527f6573730000000000000000000000000000000000000000000000000000000000602082015250565b7f45524332303a20617070726f766520746f20746865207a65726f20616464726560008201527f7373000000000000000000000000000000000000000000000000000000000000602082015250565b7f45524332303a207472616e7366657220616d6f756e742065786365656473206260008201527f616c616e63650000000000000000000000000000000000000000000000000000602082015250565b7f496e697469616c697a61626c653a20636f6e747261637420697320616c72656160008201527f647920696e697469616c697a6564000000000000000000000000000000000000602082015250565b7f45524332303a207472616e7366657220616d6f756e742065786365656473206160008201527f6c6c6f77616e6365000000000000000000000000000000000000000000000000602082015250565b7f45524332303a207472616e736665722066726f6d20746865207a65726f20616460008201527f6472657373000000000000000000000000000000000000000000000000000000602082015250565b7f45524332303a20617070726f76652066726f6d20746865207a65726f2061646460008201527f7265737300000000000000000000000000000000000000000000000000000000602082015250565b7f45524332303a2064656372656173656420616c6c6f77616e63652062656c6f7760008201527f207a65726f000000000000000000000000000000000000000000000000000000602082015250565b7f45524332303a206d696e7420746f20746865207a65726f206164647265737300600082015250565b611c8b816118a6565b8114611c9657600080fd5b50565b611ca2816118e4565b8114611cad57600080fd5b5056fea2646970667358221220f1e0376dc6499e7a29b09e424893667d943be6bebf29157121a50e613dbf6ed764736f6c63430008070033",
  "immutableReferences": {},
  "source": "// SPDX-License-Identifier: MIT\r\npragma solidity ^0.8.2;\r\n\r\nimport \"@openzeppelin/contracts-upgradeable/token/ERC20/ERC20Upgradeable.sol\";\r\nimport \"@openzeppelin/contracts-upgradeable/proxy/utils/Initializable.sol\";\r\n\r\ncontract STB9b9BusinessRewards is Initializable, ERC20Upgradeable {\r\n    function initialize() initializer public {\r\n        __ERC20_init(\"STB 9b9 Business Rewards \", \"STB9b9\");\r\n\r\n        _mint(msg.sender, 12000000000 * 10 ** decimals());\r\n    }\r\n}",
  "sourcePath": "C:\\_scm\\jejudoge\\rewards\\contracts\\Rewards.sol",
  "compiler": {
    "name": "solc",
    "version": "0.8.7+commit.e28d00a7.Emscripten.clang"
  },
  "schemaVersion": "3.4.3",
  "updatedAt": "2021-08-28T21:45:20.263Z",
  "devdoc": {
    "kind": "dev",
    "methods": {
      "allowance(address,address)": {
        "details": "See {IERC20-allowance}."
      },
      "approve(address,uint256)": {
        "details": "See {IERC20-approve}. Requirements: - `spender` cannot be the zero address."
      },
      "balanceOf(address)": {
        "details": "See {IERC20-balanceOf}."
      },
      "decimals()": {
        "details": "Returns the number of decimals used to get its user representation. For example, if `decimals` equals `2`, a balance of `505` tokens should be displayed to a user as `5.05` (`505 / 10 ** 2`). Tokens usually opt for a value of 18, imitating the relationship between Ether and Wei. This is the value {ERC20} uses, unless this function is overridden; NOTE: This information is only used for _display_ purposes: it in no way affects any of the arithmetic of the contract, including {IERC20-balanceOf} and {IERC20-transfer}."
      },
      "decreaseAllowance(address,uint256)": {
        "details": "Atomically decreases the allowance granted to `spender` by the caller. This is an alternative to {approve} that can be used as a mitigation for problems described in {IERC20-approve}. Emits an {Approval} event indicating the updated allowance. Requirements: - `spender` cannot be the zero address. - `spender` must have allowance for the caller of at least `subtractedValue`."
      },
      "increaseAllowance(address,uint256)": {
        "details": "Atomically increases the allowance granted to `spender` by the caller. This is an alternative to {approve} that can be used as a mitigation for problems described in {IERC20-approve}. Emits an {Approval} event indicating the updated allowance. Requirements: - `spender` cannot be the zero address."
      },
      "name()": {
        "details": "Returns the name of the token."
      },
      "symbol()": {
        "details": "Returns the symbol of the token, usually a shorter version of the name."
      },
      "totalSupply()": {
        "details": "See {IERC20-totalSupply}."
      },
      "transfer(address,uint256)": {
        "details": "See {IERC20-transfer}. Requirements: - `recipient` cannot be the zero address. - the caller must have a balance of at least `amount`."
      },
      "transferFrom(address,address,uint256)": {
        "details": "See {IERC20-transferFrom}. Emits an {Approval} event indicating the updated allowance. This is not required by the EIP. See the note at the beginning of {ERC20}. Requirements: - `sender` and `recipient` cannot be the zero address. - `sender` must have a balance of at least `amount`. - the caller must have allowance for ``sender``'s tokens of at least `amount`."
      }
    },
    "version": 1
  },
  "userdoc": {
    "kind": "user",
    "methods": {},
    "version": 1
  }
}